:100000000C947A000C949B000C949B000C940D05AE
:100010000C949B000C949B000C949B000C949B00F4
:100020000C949B000C949B000C949B000C949B00E4
:100030000C949B000C949B000C949B000C949B00D4
:100040000C949B000C9436050C949B000C949B0024
:100050000C949B000C94B6040C949B000C949B0095
:100060000C949B000C9466040C949B000C949B00D5
:100070000C949B000C949B000C949B000C949B0094
:100080000C949B000C949B000C949B000C949B0084
:100090000C9418040C949B000C949B000C949B00F3
:1000A0000C949B000C949B000C949B000C949B0064
:1000B0000C949B000C949B000C949B000C94FE04ED
:1000C0000C949B000C949B000C949B000C94CA0312
:1000D0000C949B000C949B000C947C030C949B0050
:1000E0000C949B000C94E9000C9472010C94EA00AF
:1000F0000C94FC0011241FBECFEFD1E2DEBFCDBFB8
:1001000000E00CBF23E0A6EFB2E001C01D92A13DCC
:10011000B207E1F712E0A0E0B2E0E4E8F9E100E0C4
:100120000BBF02C007900D92A63FB107D9F70E94FE
:10013000A0050C94C00C0C940000DC01A154BC4F31
:100140002C91211128C02091BE03211117C027E84E
:1001500020937A0020917B00286020937B002091DF
:100160007D0041E050E0082E01C0440F0A94EAF7F8
:10017000242B20937D0021E02093BE03880F991F3C
:10018000FC01EC5FFD4F81E090E0918380838C93D4
:1001900090E080E008958FEF9FEF0895FC01EE0F4F
:1001A000FF1FEC5FFD4F90819295990F990F907C06
:1001B000892B80937C0080917A00806480937A0000
:1001C00080917A0086FDFCCF809178009091790033
:1001D000089508958A3039F49091C00095FFFCCFBE
:1001E0009DE09093C6009091C00095FFFCCF809356
:1001F000C60090E080E00895089527E030E0482FA1
:10020000880F550BCA01022E02C0959587950A9456
:10021000E2F780FF13C080910201806280930201A7
:1002200090910201906190930201909102019F7E52
:10023000909302012150310928F70895809102011D
:100240008F7DECCF089520E0382F3F77880F892FDE
:10025000881F990B9195009709F030682F5FFB017B
:100260003193BF01009711F0243071F7822F089568
:10027000CF93DF930097A1F1EC014C815D812E813A
:100280003F81429FC001439F900D529F900D1124CA
:1002900028813981820F931F0E942E098A852A8125
:1002A0003B81882341F0888599850196B9010E9498
:1002B000E107998788878E819F810196B9010E9405
:1002C000E1079C019F838E8391E048855985421701
:1002D000530709F090E09A8781E0DF91CF9108956C
:1002E00080E0FBCFEF92FF920F931F93CF93DF93AA
:1002F0001F92CDB7DEB70091B0031091B103011585
:100300001105E9F3F801E084F1848285811106C0CA
:1003100081E0268137812E153F0509F080E080FDC0
:10032000EECFF80144815581E49EC001E59E900D19
:10033000F49E900D112460817181680F791FCE01A8
:1003400001960E942E09F8011286C701019662816A
:1003500073810E94E1079187808789818D3011F434
:100360008AE08983898190E00F90DF91CF911F917E
:100370000F91FF90EF90089510922B03ECE2F3E0C1
:1003800080E8DF011D928A95E9F708959F92AF9268
:10039000BF92CF92DF92EF92FF920F931F93CF9372
:1003A000DF93CDB7DEB7C758D1090FB6F894DEBFDB
:1003B0000FBECDBFD82E992EC62E172F6CE272E03D
:1003C000CE0101960E944D091F93CF9288E392E0DF
:1003D0009F938F938E010F571F4F1F930F930E9470
:1003E000EA09B801CE0101960E943709E090AC03FA
:1003F000F090AD0389EE90E09093AD038093AC0351
:100400006BE372E0CE0101960E943709FC010F9068
:100410000F900F900F900F900F909191911132C00B
:1004200000ED17E08FE39CE90197F1F700C00000B1
:100430006EE370E08CE293E00E944209892B09F0A0
:100440008FC06EE372E08CE293E00E9454095C017D
:10045000892B59F464E472E08CE293E00E94540921
:10046000892B19F401501109E9F680912B038111B0
:1004700010C003E010E00E94BC01F092AD03E092D6
:10048000AC033AC08091D00085FFFCCF9093D6009A
:10049000C4CFAB2809F061C064E472E08CE293E061
:1004A0000E94540904E010E0892B29F301E010E0D8
:1004B000E2CF91912091D00025FFFCCF9093D60000
:1004C0009E2F981B9C15A8F308EE13E08FE39CE980
:1004D0000197F1F700C0000069E472E08CE293E05C
:1004E0000E945409892BE1F00E94BC01F092AD03F7
:1004F000E092AC0310E000E0C801C957DF4F0FB62F
:10050000F894DEBF0FBECDBFDF91CF911F910F9149
:10051000FF90EF90DF90CF90BF90AF909F900895A5
:100520006EE372E08CE293E00E9454096C01892B27
:1005300061F464E472E08CE293E00E945409892B38
:1005400021F40150110909F0C1CF80912B038823B8
:1005500009F48FCFCD2809F49FCF02E010E08BCFB4
:100560000E94BC018D2DED2DF92DAACF0F931F9365
:10057000CF93DF93CDB7DEB7C458D1090FB6F89447
:10058000DEBF0FBECDBF8E010F571F4FB8018CE1EC
:1005900090E00E94230190E199839E012E5F3F4FDE
:1005A000D801A9019A2F901B981708F4A0C0FA014E
:1005B000E80FF11D1082E2E0E80F21E030E02C0F9F
:1005C0003D1F2E0F311DF90194E09083E3E0E80F09
:1005D00041E050E04C0F5D1F4E0F511DFA012DE41C
:1005E0002083E4E0E80F21E030E02C0F3D1F2E0FC8
:1005F000311DF90121E52083E5E0E80F41E050E0FD
:100600004C0F5D1F4E0F511DFA0124E52083E6E0DB
:10061000E80F41E050E04C0F5D1F4E0F511DFA01F5
:100620002083E7E0E80F21E030E02C0F3D1F2E0F84
:10063000311DF9019083E8E0E80F41E050E04C0FF4
:100640005D1F4E0F511DFA0192E09083E9E0E80F23
:1006500021E030E02C0F3D1F2E0F311DF9011082DB
:10066000EAE0E80F41E050E04C0F5D1F4E0F511DD6
:10067000FA019CE39083EBE0E80F21E030E02C0FDF
:100680003D1F2E0F311DF9011082ECE0E80F41E013
:1006900050E04C0F5D1F4E0F511DFA0190E1908309
:1006A000ADE0A80FE1E0F0E0EC0FFD1FEA0FF11D57
:1006B000DF01E1E5F2E001900D929A95E1F7835EAA
:1006C000682F70E0CE0101960E94C60121E0892BBF
:1006D00009F020E0822FCC57DF4F0FB6F894DEBF31
:1006E0000FBECDBFDF91CF911F910F9108959D91C6
:1006F000F90191939F0156CF1F920F920FB60F925F
:1007000011240BB60F922F933F934F935F936F93E8
:100710007F938F939F93AF93BF93EF93FF93CF9369
:10072000DF931F92CDB7DEB72091360129838091E8
:10073000BC039091BD030097E9F4E091BA03F091F6
:10074000BB03822F309721F50F90DF91CF91FF915E
:10075000EF91BF91AF919F918F917F916F915F9139
:100760004F913F912F910F900BBE0F900FBE0F90A6
:100770001F901895BE016F5F7F4F0E9438018981DD
:100780008A3011F7E091BA03F091BB033097E1F2A0
:100790001995DACF1F920F920FB60F9211240BB654
:1007A0000F922F933F934F935F936F937F938F930A
:1007B0009F93AF93BF93EF93FF93CF93DF931F92DA
:1007C000CDB7DEB72091D60029838091B8039091F0
:1007D000B9030097E9F4E091B603F091B703822FD3
:1007E000309721F50F90DF91CF91FF91EF91BF915D
:1007F000AF919F918F917F916F915F914F913F91B9
:100800002F910F900BBE0F900FBE0F901F90189559
:10081000BE016F5F7F4F0E94380189818A3011F7D6
:10082000E091B603F091B7033097E1F21995DACF72
:100830001F920F920FB60F9211240BB60F922F93A7
:100840003F934F935F936F937F938F939F93AF9358
:10085000BF93EF93FF93CF93DF931F92CDB7DEB794
:100860002091CE0029838091B4039091B503009725
:10087000E9F4E091B203F091B303822F309721F5B0
:100880000F90DF91CF91FF91EF91BF91AF919F9129
:100890008F917F916F915F914F913F912F910F9029
:1008A0000BBE0F900FBE0F901F901895BE016F5F8B
:1008B0007F4F0E94380189818A3011F7E091B2039D
:1008C000F091B3033097E1F21995DACF1F920F92AE
:1008D0000FB60F9211240BB60F922F933F934F93A5
:1008E0005F936F937F938F939F93AF93BF93EF9398
:1008F000FF93CF93DF931F92CDB7DEB72091C60051
:1009000029838091B0039091B1030097E9F4E091BD
:10091000AE03F091AF03822F309731F50F90DF9146
:10092000CF91FF91EF91BF91AF919F918F917F9167
:100930006F915F914F913F912F910F900BBE0F9050
:100940000FBE0F901F901895BE016F5F7F4F0E94E2
:10095000380189818D3011F08A3001F7E091AE03C2
:10096000F091AF033097D1F21995D8CF1F920F9223
:100970000FB60F9211240BB60F921F932F933F9334
:100980004F935F936F937F938F939F93AF93BF9397
:10099000CF93DF93EF93FF93C8E0D3E011E0E881BA
:1009A000F981309789F08E81882371F08C819D8147
:1009B00001969D838C832A813B818217930720F0C7
:1009C0001D821C82812F199527961F5F163039F7DB
:1009D000FF91EF91DF91CF91BF91AF919F918F9157
:1009E0007F916F915F914F913F912F911F910F9048
:1009F0000BBE0F900FBE0F901F9018951F920F9275
:100A00000FB60F9211248F9381E0809307038F918B
:100A10000F900FBE0F901F9018951F920F920FB658
:100A20000F9211240BB60F922F933F934F935F9326
:100A30006F937F938F939F93AF93BF93EF93FF93A6
:100A4000F0E0E0E01995FF91EF91BF91AF919F9198
:100A50008F917F916F915F914F913F912F910F9067
:100A60000BBE0F900FBE0F901F9018951F920F9204
:100A70000FB60F9211240BB60F922F933F934F9303
:100A80005F936F937F938F939F93AF93BF93EF93F6
:100A9000FF93A59840910603E0910503442309F4D0
:100AA00042C08E2F0E2E000C990B23E030E0241B49
:100AB000310982179307B9F580509E4FDC01EC9104
:100AC0000E2E000CFF0BE65EFD4F80818068809546
:100AD0000E94FD009091050381E001C0880F9A9566
:100AE000EAF70E94FD00A59A80910503082E000CEC
:100AF000990B019664E070E00E94F507809305036E
:100B0000FF91EF91BF91AF919F918F917F916F91E5
:100B10005F914F913F912F910F900BBE0F900FBEA1
:100B20000F901F9018950E2E000CFF0BE050FE4FFB
:100B3000E0810E2E000CFF0BE65EFD4F8081C7CFDB
:100B4000CF93DF93CDB7DEB7CA59D1400FB6F89433
:100B5000DEBF0FBECDBF9D9A809101018062809360
:100B600001018091010180618093010180918100E8
:100B70008860809381008FEC97E090938900809348
:100B8000880080916F00826080936F008091810067
:100B900082608093810081E180930302809302024E
:100BA000809301028093000287E090E00E949D0004
:100BB00090E080E00E949D001092C50080E180934B
:100BC000C40082E08093C00088E18093C10086E089
:100BD0008093C2000091B0031091B103011511057B
:100BE00061F0F801808191810E94A508C8010E94EE
:100BF000A5081092B1031092B0038BE090E00E9420
:100C000009088C01892B31F41092B1031092B003C2
:100C10002C98FFCF80E290E00E940908F8019183B0
:100C20008083892B21F4C8010E94A508EDCF80E2C2
:100C300090E09383828381E090E0958384831782A0
:100C400016821186108612861093B1030093B003AA
:100C50008CEF90E09093AF038093AE038091C1003E
:100C600080688093C10086EF92E02AEE30E03093F6
:100C7000FF022093FE0222E731E03093010320932C
:100C8000000323E02093F902109203031092020361
:100C90009093C8038093C7039093CA038093C903BA
:100CA0009093CC038093CB037894FFEF2FE433EC45
:100CB000F15020403040E1F700C000000E94B60231
:100CC00080930403712C55245394AA24AA9433E0EE
:100CD000B32E4AE0442E51E1652E7E0141E0E40E40
:100CE000F41E6E0159E6C51A5EEFD50A8091040321
:100CF000811109C0739464E0671528F40E94B6025C
:100D000080930403712C1D821C821B821A8219821B
:100D100080910A01826080930A0180910B018D7F8E
:100D200080930B017FEF80EE90E071508040904007
:100D3000E1F700C000005FB7F89480910B0182607A
:100D400080930B01E5EDEA95F1F7000080910A012F
:100D50008D7F80930A0180910B01826080930B014B
:100D600030E020E041E090E007C09F5FF5E0FA95B9
:100D7000F1F700009F3F29F08091090182708417EC
:100D8000A1F34091090142709F3FC9F02430A0F0C7
:100D900020FD12C0E32FE695E695E69561E070E050
:100DA0006C0F7D1F6E0F711DFB018081880F9B31C1
:100DB00008F0E5C080833F5F2F5F2535A1F65FBF58
:100DC000383208F4DEC039800A812B801C812D81E5
:100DD000E32DE00FFF27FF1FCF01820D911D810F33
:100DE000911D99272817190609F0CBC08091C603D9
:100DF00088248A94982C882369F087E090E00E94E8
:100E0000CE004C018115F4E09F0720F49501281BCA
:100E1000390B49018091BF032FEF3FEF882369F021
:100E200090E080E00E94CE009C01811544E0940790
:100E300020F4B501681B790B9B0150920603812FAA
:100E400090E0249C800D911D1124282E192F609272
:100E5000030260920202609201026092000240E08E
:100E6000009709F093C0109203023F932F939F9233
:100E70008F92802F90E0349C800D911D11249F93C0
:100E80008F931F932F921F925F9282E692E09F931F
:100E90008F931F9286E98F93FF92EF920E94AD0984
:100EA0000FB6F894DEBF0FBECDBF80910403882338
:100EB00009F483C0F70101900020E9F731978F0111
:100EC0000E191F09B601C80147960E94230190E33D
:100ED00099839E012E5F3F4FD601A9019A2F9C193D
:100EE000981708F465C0FA01E80FF11D1082E2E0DE
:100EF000E80F21E030E02C0F3D1F2E0F311DF901CE
:100F000095E19083A3E0A80F41E050E04C0F5D1FF6
:100F10004A0F511DDA01E0ECF2E001900D929A9532
:100F2000E1F798E1992E980EA801B70181E090E0D1
:100F30008C0F9D1F890D911D0E942E09090D602F98
:100F400070E0CE0101960E94C601892B71F01092CB
:100F50000403FF92EF9266ED72E07F936F930E941D
:100F60006E090F900F900F900F909FEFE7EAF1E658
:100F70009150E040F040E1F700C00000B7CE816042
:100F800019CF212C10E0312C00E030CFE3E0F0E06D
:100F9000E41BF10947FDF395E050FE4F6AE070E075
:100FA0000E94F5078083CB014F5F009779F75DCFF3
:100FB0009D91F90191939F0191CFC7010E948209F0
:100FC000D4CFAA1BBB1B51E107C0AA1FBB1FA6178A
:100FD000B70710F0A61BB70B881F991F5A95A9F7E2
:100FE00080959095BC01CD01089597FB072E16F4CE
:100FF000009407D077FD09D00E94E10707FC05D0D7
:101000003EF4909581959F4F0895709561957F4F1F
:1010100008950F931F93CF93DF938230910510F4BF
:1010200082E090E0E091CF03F091D00330E020E047
:10103000B0E0A0E0309799F42115310509F44AC0D9
:10104000281B390B24303105D8F58A819B81611525
:10105000710589F1FB0193838283FE0111C04081F8
:1010600051810281138148175907E0F04817590749
:1010700099F4109761F012960C93129713961C93A3
:101080003296CF01DF91CF911F910F910895009378
:10109000CF031093D003F4CF2115310551F042173F
:1010A000530738F0A901DB019A01BD01DF01F80106
:1010B000C1CFEF01F9CF9093D0038093CF03CDCF71
:1010C000FE01E20FF31F819391932250310939837E
:1010D0002883D7CF2091CD033091CE03232B41F429
:1010E00020911602309117023093CE032093CD0346
:1010F00020911402309115022115310541F42DB7CC
:101100003EB74091180250911902241B350BE09113
:10111000CD03F091CE03E217F307A0F42E1B3F0B93
:101120002817390778F0AC014E5F5F4F2417350759
:1011300048F04E0F5F1F5093CE034093CD03819331
:1011400091939FCFF0E0E0E09CCFCF93DF930097A7
:10115000E9F0FC01329713821282A091CF03B09183
:10116000D003ED0130E020E01097A1F4208131811F
:10117000820F931F2091CD033091CE03281739079A
:1011800009F061C0F093CE03E093CD03DF91CF91DE
:101190000895EA01CE17DF07E8F54A815B819E01D9
:1011A00041155105B1F7E901FB83EA834991599152
:1011B000C40FD51FEC17FD0761F480819181029661
:1011C000840F951FE90199838883828193819B8392
:1011D0008A83F0E0E0E012968D919C91139700973E
:1011E000B9F52D913C911197CD010296820F931F75
:1011F0002091CD033091CE032817390739F6309767
:1012000051F51092D0031092CF03B093CE03A09368
:10121000CD03BCCFD383C28340815181840F951FFE
:10122000C817D90761F44E5F5F4F88819981480FD5
:10123000591F518340838A819B8193838283211527
:10124000310509F0B0CFF093D003E093CF039ECFE8
:10125000FD01DC01C0CF13821282D7CFFB01DC017C
:1012600002C001900D9241505040D8F70895FB0103
:10127000DC010D900020E9F7119701900D920020FC
:10128000E1F70895FC018191861721F08823D9F7B1
:10129000992708953197CF010895FB01DC01019052
:1012A0000D920020E1F70895FB0151915523A9F01B
:1012B000BF01DC014D9145174111E1F759F4CD0112
:1012C0000190002049F04D9140154111C9F3FB01F7
:1012D0004111EFCF81E090E001970895CF93DF9324
:1012E000CDB7DEB7AE014A5F5F4FFA0161917191F0
:1012F000AF018091C9039091CA030E941A0ADF913D
:10130000CF9108950F931F93CF93DF93E091C9037B
:10131000F091CA032381EC0110E000E021FD08C038
:101320000FEF1FEF14C01995892B11F00FEF1FEF6E
:1013300089916091C9037091CA03DB011896ED9100
:10134000FC918111F0CF8AE01995892B49F7C801EA
:10135000DF91CF911F910F9108950F931F93CF931A
:10136000DF93CDB7DEB72E970FB6F894DEBF0FBE72
:10137000CDBF0E891F89888D998D26E02C831A8315
:10138000098397FF02C080E090E801979E838D83D8
:10139000AE01445E5F4F6A8D7B8DCE0101960E9447
:1013A0001A0A4D815E8157FD0AC02F813885421788
:1013B00053070CF49A01020F131FF80110822E96A6
:1013C0000FB6F894DEBF0FBECDBFDF91CF911F9156
:1013D0000F9108950F931F93CF93DF93CDB7DEB78F
:1013E0002E970FB6F894DEBF0FBECDBF0E891F89B2
:1013F00086E08C831A8309838FEF9FE79E838D831A
:10140000AE01465E5F4F688D798DCE0101960E94D8
:101410001A0A2F813885020F131FF80110822E96A9
:101420000FB6F894DEBF0FBECDBFDF91CF911F91F5
:101430000F9108952F923F924F925F926F927F92F9
:101440008F929F92AF92BF92CF92DF92EF92FF92D4
:101450000F931F93CF93DF9300D000D000D01F9243
:101460001F92CDB7DEB77C013B018A01FC011782D8
:101470001682838181FFDDC1CE0101965C01F701F7
:101480009381F30193FD859193FF81913F0188231F
:1014900009F453C1853239F493FD859193FF81910D
:1014A0003F01853229F4B70190E00E94320CE7CF6A
:1014B000912C212C312CFFE1F31538F08B3211F1F6
:1014C00090F4803209F1833229F137FC3CC020EDE1
:1014D000280F2A3050F536FE20C08AE0989E200D55
:1014E0001124922E06C08D3291F0803371F76894EA
:1014F00030F8F30193FD859193FF81913F018111B4
:10150000DACF21C0689431F8689432F8F2CF689449
:1015100033F8EFCF689434F8ECCFEAE02E9E200D3C
:101520001124222E689435F8E4CF8E3229F436FC4B
:1015300004C1689436F8DDCF8C3619F4689437F816
:10154000D8CF8836B1F2982F9F7D95549330E0F034
:101550008336A1F18337C1F1833509F063C02801D7
:10156000F2E04F0E511CF801C080D180692D70E06F
:1015700036FC02C06FEF7FEFC6010E941C0C4C01CD
:10158000689437F882010AC00C5F1F4FFFE3F983AC
:1015900088248394912C6501E89437F833FE2DC09C
:1015A000522C8114910471F5552009F468CFB701CC
:1015B00080E290E00E94320C5A94F6CFF8018081CC
:1015C00089830E5F1F4FE4CF2801F2E04F0E511CBC
:1015D000F801C080D180692D70E036FC02C06FEF49
:1015E0007FEFC6010E94270C4C018201D5CFB701C5
:1015F00080E290E00E94320C2A942814190409F029
:10160000B0F7CECFF60137FC859137FE81916F019F
:10161000B70190E00E94320C51105A94F1E08F1AF9
:101620009108BFCF843619F0893609F077C0F801E8
:1016300037FE6BC060817181828193810C5F1F4F87
:10164000F32DFF763F2E97FF09C0909580957095FA
:1016500061957F4F8F4F9F4F689437F82AE030E0B5
:10166000A5010E94620CC82ECA188C2C432C36FE91
:101670000CC0E89440F8C91440F434FE05C032FCB4
:1016800003C0F32DFE7E4F2E892C44FEAAC0FE011E
:10169000EC0DF11D8081803309F09CC0242D297E42
:1016A000422E842D8870582E43FCAAC040FEA4C050
:1016B0009C2C821418F42C0C922C981844FEA6C072
:1016C000B70180E390E00E94320C42FE09C088E737
:1016D00090E041FE02C088E590E0B7010E94320C24
:1016E000C91408F49FC0CA94D12C9FEFC91AD90A13
:1016F000CA0CDB1CF60182916F01B70190E00E94D9
:10170000320CAC14BD04B1F74FCF60817181072E4C
:10171000000C880B990B0E5F1F4F92CFD32CE894CF
:10172000D4F82AE030E08537E1F1232D297FD22E4D
:101730008F36A9F1F0F4883551F1F7018681978150
:101740002B960FB6F894DEBF0FBECDBFDF91CF91C1
:101750001F910F91FF90EF90DF90CF90BF90AF90CF
:101760009F908F907F906F905F904F903F902F90C1
:101770000895803749F0883701F7D4FE02C0689495
:10178000D2F820E130E00DC06894D4F8F6CF34FEF2
:1017900003C0822F8660D82E20E132E002C028E00C
:1017A00030E0F801D7FE0FC06081718182819381A2
:1017B0000C5F1F4FA5010E94620CC82ECA183D2C59
:1017C000E89437F852CF6081718190E080E00E5F3D
:1017D0001F4FF0CF42FC02C0839463CF8394839465
:1017E00060CF842D867809F45CCFF6CFB70180E214
:1017F00090E00E94320C83948214C0F3512C5ECF8F
:10180000522C5818821408F459CFF8CF842D8678BA
:1018100009F466CF8BE241FE80E247FC8DE2B7011E
:1018200090E05CCFB70180E390E00E94320C9A9484
:1018300057CF8FEF9FEF84CFFC0105906150704030
:101840000110D8F7809590958E0F9F1F0895FC0189
:101850006150704001900110D8F7809590958E0FDF
:101860009F1F08950F931F93CF93DF93182F092F76
:10187000EB018B8181FD09C01FEF0FEF812F902FAE
:10188000DF91CF911F910F91089582FF14C02E8197
:101890003F818C819D81281739073CF4E881F981CB
:1018A000CF0101969983888310838E819F81019651
:1018B0009F838E83E3CFE885F985812F1995892B46
:1018C000A1F3DACFFA01AA27283051F1203181F1B2
:1018D000E8946F936E7F6E5F7F4F8F4F9F4FAF4F38
:1018E000B1E03ED0B4E03CD0670F781F891F9A1F4B
:1018F000A11D680F791F8A1F911DA11D6A0F711DFF
:10190000811D911DA11D20D009F468943F912AE00A
:10191000269F11243019305D3193DEF6CF010895F2
:10192000462F4770405D4193B3E00FD0C9F7F6CF23
:10193000462F4F70405D4A3318F0495D31FD4052EB
:10194000419302D0A9F7EACFB4E0A6959795879581
:1019500077956795BA95C9F7009761057105089560
:101960009B01AC010A2E069457954795379527950C
:10197000BA95C9F7620F731F841F951FA01D0895A4
:04198000F894FFCF09
:101984000303030301000100010001000100010041
:10199400010001000000D10380003F065B4F666D2B
:1019A4007D077F6F777C395E7971400041542B430A
:1019B400495053454E443D002575000D0A004552DB
:1019C400524F52004641494C0053454E44204F4B20
:1019D4000061726475696E6F5F6D6567615F303059
:1019E40031007B2273657475705F6964223A2575D2
:1019F4002C2273656E736F725F6964223A6E756C24
:101A04006C2C2274656D7065726174757265223A0E
:101A140025752C2268756D6964697479223A257577
:101A24002C226C69676874223A25752C22736F69BD
:101A34006C5F6D6F697374757265223A25757D00EC
:101A44006661726D2F73656E736F722F74656C654A
:101A54006D65747279004D515454206661696C65EA
:101A6400642C2066616C6C6261636B205541525436
:061A74003A2025730A0070
:00000001FF
