:100000000C94AA000C94CB000C94CB000C94140F0D
:100010000C94CB000C94CB000C94CB000C94CB0034
:100020000C94CB000C94CB000C94CB000C94CB0024
:100030000C94CB000C94CB000C94CB000C94CB0014
:100040000C94CB000C943F0F0C94CB000C94CB0081
:100050000C94CB000C94BD0E0C94CB000C94CB00F4
:100060000C94CB000C946D0E0C94CB000C94CB0034
:100070000C94CB000C94CB000C94CB000C94CB00D4
:100080000C94CB000C94CB000C94CB000C94CB00C4
:100090000C941F0E0C94CB000C94CB000C94CB0052
:1000A0000C94CB000C94CB000C94CB000C94CB00A4
:1000B0000C94CB000C94CB000C94CB000C94050F4B
:1000C0000C94CB000C94CB000C94CB000C94D10D71
:1000D0000C94CB000C94CB000C94830D0C94CB00AF
:1000E0000C94CB000C94170C0C94D80B0C94DC01E2
:1000F0000C9419010C94F1080C94C5030C94F601AE
:100100000C94C20B0C947A040C94D7030C94450302
:100110000C94650B0C94D6070C943D0D0C942E0199
:100120000C9408080C940C090C94FE0C0C944B09CC
:100130000C94E4010C947C0D0C945F040C949A0CC8
:100140000C94ED030C94440B6364696E6F707375CB
:1001500078585B0011241FBECFEFD1E2DEBFCDBFC8
:1001600000E00CBF27E1ACEDB4E101C01D92A1326B
:10017000B207E1F714E1A0E0B2E0ECE1F8E300E05F
:100180000BBF02C007900D92AC3DB107D9F70E949A
:10019000F30F0C940C1C0C940000DC01A15FB84E12
:1001A0002C91211128C020910E17211117C027E88A
:1001B00020937A0020917B00286020937B0020917F
:1001C0007D0041E050E0082E01C0440F0A94EAF798
:1001D000242B20937D0021E020930E17880F991F78
:1001E000FC01EB5DFD4F81E090E0918380838C9377
:1001F00090E080E008958FEF9FEF0895FC01EE0FEF
:10020000FF1FEB5DFD4F90819295990F990F907CA8
:10021000892B80937C0080917A00806480937A009F
:1002200080917A0086FDFCCF8091780090917900D2
:10023000089590916F16E92FF0E0E059F94E808310
:100240009F5F90936F160895E0E7F6E1119286E1C3
:10025000E03FF807D9F710926F1608952091F6162F
:100260003091F71621303105B9F040F022303105D8
:10027000D9F12330310509F464C008958B3209F0B7
:100280009AC081E090E09093F7168093F6169093D1
:10029000F5168093F41608952091F4163091F51612
:1002A000F901E35BFD4F4081042E000C550B8417D0
:1002B000150689F42430310539F482E090E09093FA
:1002C000F7168093F61608952F5F3F4F3093F5167B
:1002D0002093F41608951092F7161092F6161092C5
:1002E000F5161092F416089590ED980F9A3098F440
:1002F0004091F2165091F3169AE0949F9001959FC9
:10030000300D11248053990B820F931F9093F31695
:100310008093F21608958A3359F483E090E0909325
:10032000F7168093F6161092F1161092F0160895B3
:100330001092F7161092F6161092F3161092F2160B
:1003400008954091F0165091F1162091F2163091D7
:10035000F3164217530774F4E091FC16F091FD1662
:10036000BA016F5F7F4F7093F1166093F016E40F40
:10037000F51F80838091F0169091F11628173907A8
:10038000D1F4E091FC16F091FD16E20FF31F1082FC
:100390001092F7161092F6161092F3161092F216AB
:1003A0001092F1161092F0160E942401E091FA16B4
:1003B000F091FB1619940895E091F816F091F91652
:1003C000309709F0199408958A3039F49091C0005B
:1003D00095FFFCCF9DE09093C6009091C00095FFE3
:1003E000FCCF8093C60090E080E0089581E0809388
:1003F0006E160895CF92DF92EF92FF92CF93DF9324
:10040000EB010F9A9C0150E040E060E271EA87E066
:1004100090E00E94191469017A019E01A8EEB3E0F0
:100420000E9440149601220F331F50E040E00E94CA
:10043000F713E9011092B0001092B10089EEC816CE
:1004400083E0D80690F120E830E085E08093B100A9
:10045000C701B60144E0660F771F881F991F4A95B0
:10046000D1F750E040E00E94F71390E080E0179A47
:100470001092B2004091B20042171306D8F31798B9
:100480001092B2004091B20042171306D8F30196C1
:100490008C179D0760F31092B1000F98DF91CF91F8
:1004A000FF90EF90DF90CF90089520E430E084E05B
:1004B000CDCF64EF71E088E891E00E94FA0164EF2B
:1004C00071E088E891E00E94FA0164EF71E088E849
:1004D00091E00E94FA016EE571E087E391E00E94ED
:1004E000FA0166E970E082ED91E00E94FA0164EFA2
:1004F00071E088E891E00E94FA016EE571E087E31F
:1005000091E00E94FA0166E970E082ED91E00E94BC
:10051000FA0168EE73E088E891E00E94FA0164EF66
:1005200071E08BE492E00E94FA0164EF71E08BE4E9
:1005300092E00E94FA0164EF71E08BE492E00E9485
:10054000FA016EE571E08EE692E00E94FA0166E93A
:1005500070E082ED91E00E94FA0164EF71E082E7C1
:1005600091E00E94FA016EE571E087E391E00E945C
:10057000FA0166E970E082ED91E00E94FA0168EE0E
:1005800073E088E891E00C94FA019FEF980F9530A2
:10059000D0F4082E000C990B019727E0289FF0015A
:1005A000299FF00D1124E55BF94E11821082138210
:1005B000128215821482168280914A16815080938D
:1005C0004A1680E008958FEF0895AC01CB010197A2
:1005D00080369A4EE0F580914A16853014F08DEF02
:1005E000089581110DC094B5926094BD89EF87BDC7
:1005F00090916E00926090936E0095B5936095BD5A
:10060000EBE4F6E130E020E081E0820FA081B181EF
:10061000AB2BB1F497E0929FF001939FF00D112462
:10062000E55BF94E518340837383628315821482A4
:1006300091E0968390914A169F5F90934A16089591
:100640002F5F3F4F379625303105F1F6C8CF8EEF3B
:100650000895823099F02CF4813051F08FEF9FEFA4
:100660000895833079F08430C9F785B190E108C0EE
:1006700085B1805885B990E080E0089585B190E417
:100680008927F8CF85B190E2FBCFE3E4F6E190E073
:10069000282F30E041919F5F042E000C550B42172C
:1006A000530719F4892F0C942903943099F708956E
:1006B00027E030E0482F880F550BCA01022E02C0F8
:1006C000959587950A94E2F780FF13C08091020107
:1006D00080628093020190910201906190930201E7
:1006E000909102019F7E909302012150310928F7D9
:1006F0000895809102018F7DECCF0F931F93CF93CC
:10070000DF939C0129513C4F273F3A42E0F430E00F
:1007100097FF04C091958195910931E021E12093E3
:1007200024022093230220932202209321023323C8
:1007300031F020E18A3091055CF420932302009788
:1007400061F410922402DF91CF911F910F910895CF
:1007500084369105BCF42093220220E003E010E0EF
:10076000CAE0D0E0F801E21BF10927FDF395EF5D47
:10077000FD4FBE010E94E3138083CB012F5F0097E2
:1007800089F7E1CF20932102E8CFCF93C0913116B2
:100790008C2F837887FF03C081508C6F8F5F8F5FB2
:1007A0000E942903CF5FC0933116CF910895089519
:1007B00020E0382F3F77880F892F881F990B91955C
:1007C000009709F030682F5FFB013193BF0100975C
:1007D00011F0243071F7822F089582E00C942903E0
:1007E000CF93DF93EC01892B71F18A85811108C0C9
:1007F00091E04E815F81288539854217530709F0C2
:1008000090E090FD20C0CB014C815D8168857985A9
:10081000469F9001479F300D569F300D11246881EF
:100820007981620F731F0E947F151A8688859985CA
:1008300001966A817B810E94CF139987888781E026
:10084000DF91CF91089580E0FBCFCF93DF930097A6
:10085000A1F1EC014C815D812E813F81429FC0015D
:10086000439F900D529F900D112428813981820F52
:10087000931F0E947F158A852A813B81882341F03E
:10088000888599850196B9010E94CF139987888739
:100890008E819F810196B9010E94CF139C019F8395
:1008A0008E8391E0488559854217530709F090E0FF
:1008B0009A8781E0DF91CF91089580E0FBCFCF93BD
:1008C000DF931F92CDB7DEB7BE016F5F7F4F809180
:1008D0000017909101170E94F0038823A9F38981E2
:1008E0008D3011F48AE08983898190E00F90DF9147
:1008F000CF9108958091B015882369F04A990AC074
:1009000080914316882321F00E94C502109243165D
:100910002F9A08952F9808958F929F92AF92BF9229
:10092000EF92FF920F931F93CF93DF93CDB7DEB774
:10093000C058D1090FB6F894DEBF0FBECDBF8B01F2
:10094000E090F816F090F91629E131E03093F916AD
:100950002093F816BC01CE0101960E94931565E51F
:1009600072E0CE0101960E948815FC0191919111CF
:100970003EC09801A4E6B0E00E9440144B015C0127
:1009800010E000E0C801B0E0A0E088159905AA05D4
:10099000BB0570F48FE39CE90197F1F700C00000FC
:1009A00063E572E080E796E10E949A15892B31F1A8
:1009B00080916F16811125C003E010E00E94240190
:1009C000F092F916E092F816C801C058DF4F0FB642
:1009D000F894DEBF0FBECDBFDF91CF911F910F9175
:1009E000FF90EF90BF90AF909F908F90089580916F
:1009F000D00085FFFCCF9093D600B8CF0F5F1F4F7C
:100A0000C1CF68E572E080E796E10E949A1510E098
:100A100000E0892B99F66BE572E080E796E10E9491
:100A20009A1502E010E0892B49F661E672E080E752
:100A300096E10E949A1504E010E0892B09F4BECFDC
:100A400001E010E0BBCFDF92EF92FF920F931F9374
:100A5000CF93DF93CDB7DEB7C758D1090FB6F8945F
:100A6000DEBF0FBECDBFE82ED92EF62E172F66E6BD
:100A700072E0CE0101960E9493151F93FF9282E7C8
:100A800092E09F938F938E010F571F4F1F930F93E9
:100A90000E947416B801CE0101960E94881564E187
:100AA00070E0CE0101960E948C040F900F900F9081
:100AB0000F900F900F903E2DEE2DFD2D0097B1F071
:100AC000C957DF4F0FB6F894DEBF0FBECDBFDF9121
:100AD000CF911F910F91FF90EF90DF90089521919A
:100AE0004091D00045FFFCCF2093D6002E2F231B32
:100AF0002F15A8F3E5CFEF92FF920F931F93CF939B
:100B0000DF93CDB7DEB7C758D1090FB6F894DEBF73
:100B10000FBECDBF7C01162F072F3093FD162093FB
:100B2000FC165093FB164093FA1665E772E0CE016F
:100B300001960E949315B701CE0101960E94881577
:100B400069E872E0CE0101960E9488150F931F9309
:100B500082E792E09F938F938E010F571F4F1F9351
:100B60000F930E947416B801CE0101960E94881559
:100B700064E170E0CE0101960E948C048C010F901C
:100B80000F900F900F900F900F90892B41F48EE2F1
:100B900091E09093F9168093F8160E942401C80101
:100BA000C957DF4F0FB6F894DEBF0FBECDBFDF9140
:100BB000CF911F910F91FF90EF900895EF92FF92C8
:100BC0000F931F93CF93DF93CDB7DEB7C058D109F2
:100BD0000FB6F894DEBF0FBECDBF7C018B016CE871
:100BE00072E0CE0101960E949315B701CE010196E5
:100BF0000E94881565E872E0CE0101960E94881572
:100C0000B801CE0101960E94881567E872E0CE0116
:100C100001960E94881564E170E0CE0101960E9461
:100C20008C04C058DF4F0FB6F894DEBF0FBECDBFA7
:100C3000DF91CF911F910F91FF90EF900895AF92A8
:100C4000BF92CF92DF92EF92FF920F931F93CF93B9
:100C5000DF9300D01F921F92CDB7DEB75C011D82DB
:100C60001C821B821A82198280910A018260809301
:100C70000A0180910B018D7F80930B018FEF90EE25
:100C8000A0E081509040A040E1F700C00000EFB626
:100C9000F89480910B01826080930B01B5EDBA95B9
:100CA000F1F7000080910A018D7F80930A01809105
:100CB0000B01826080930B01E0E0F0E0FF24F394ED
:100CC00080E007C08F5F95E09A95F1F700008F3FB5
:100CD00029F09091090192709F15A1F3909109015B
:100CE0009270F92E8F3FB9F0E43090F0E0FD10C023
:100CF0000F2F069506950695A1E0B0E0AC0FBD1F3D
:100D0000A00FB11D9C91990F8B31A0F59C93FF5FB3
:100D1000EF5FE535A9F6EFBEF83270F109811A816F
:100D20009B818C81FD80C02EC10EDD24DD1CF6016F
:100D3000E90FF11DE80FF11DFF27FE161F06E1F474
:100D4000D5010C93FB011083DA019C93F901808398
:100D500090E080E00F900F900F900F900F90DF9138
:100D6000CF911F910F91FF90EF90DF90CF90BF90A8
:100D7000AF9008959160CACFD9011C92FA011082F8
:100D8000DB011C92F501108281E090E0E3CF6D9AC7
:100D900075982FE788E391E0215080409040E1F77B
:100DA00000C00000759A08950F931F93CF93DF93AF
:100DB000CDB7DEB7C458D1090FB6F894DEBF0FBE69
:100DC000CDBF21EB35E147ED53E06BE577E087E9F7
:100DD00092E00E947B05009711F19F938F9387E02B
:100DE0008F938BE58F9387E992E09F938F9384EAAB
:100DF00092E09F938F930E94E4150FB6F894DEBFA4
:100E00000FBECDBF80E0CC57DF4F0FB6F894DEBFEA
:100E10000FBECDBFDF91CF911F910F9108958E012D
:100E20000F571F4FB8018CE190E00E94D80390E16A
:100E300099839E012E5F3F4FD801A9019A2F901BE5
:100E4000981708F497C0FA01E80FF11D1082E2E04C
:100E5000E80F21E030E02C0F3D1F2E0F311DF9016E
:100E600094E09083E3E0E80F41E050E04C0F5D1F19
:100E70004E0F511DFA012DE42083E4E0E80F21E03C
:100E800030E02C0F3D1F2E0F311DF90121E520838D
:100E9000E5E0E80F41E050E04C0F5D1F4E0F511DA3
:100EA000FA0124E52083E6E0E80F41E050E04C0F32
:100EB0005D1F4E0F511DFA012083E7E0E80F21E08E
:100EC00030E02C0F3D1F2E0F311DF9019083E8E01B
:100ED000E80F41E050E04C0F5D1F4E0F511DFA012D
:100EE00092E09083E9E0E80F21E030E02C0F3D1F15
:100EF0002E0F311DF9011082EAE0E80F41E050E0C9
:100F00004C0F5D1F4E0F511DFA019CE39083EBE0E7
:100F1000E80F21E030E02C0F3D1F2E0F311DF901AD
:100F20001082ECE0E80F41E050E04C0F5D1F4E0FE7
:100F3000511DFA0190E19083ADE0A80FE1E0F0E0EF
:100F4000EC0FFD1FEA0FF11DDF0108ED12E0F801C3
:100F500001900D929A95E1F7835E682F70E0CE01C3
:100F600001960E942305892B51F089EE92E00E94A0
:100F7000F81548CF9D91F90191939F015FCF1F9381
:100F80000F9387E08F938BE58F9387E992E09F9390
:100F90008F938DE093E09F938F930E94E4150FB69B
:100FA000F894DEBF0FBECDBF81E02DCFEAE4F5E1BE
:100FB00001900020E9F7EB54F541FF27E65BFA4E7C
:100FC0008DE080838AE08183128281E08093E51442
:100FD0000895CF93DF9300D01F921F92CDB7DEB755
:100FE0009E012F5F3F4F690144E8242E43E1342ED8
:100FF0005FEF452E54E0552E64EF862E992493948E
:10100000A12CB12C3BED632E34E0732E0CEF14E0D9
:101010001A82198280E493E00E94F8158EE693E02C
:101020000E94F81582E893E00E94F8158DE993E09C
:101030000E94F8158AEA93E00E94F8158EEB93E07F
:101040000E94F81589EC93E00E94F81584ED93E076
:101050000E94F81580EE93E00E94F8158DE094E070
:101060000E94F8158DE294E00E94F81585E494E062
:101070000E94F81580E694E00E94F81589E894E053
:101080000E94F81582EB94E00E94F8151F923EE052
:101090003F937F926F920E94E4150F900F900F90F4
:1010A0000F90DF92CF921F930F930E9423167C0123
:1010B0000F900F900F900F90809117179091181725
:1010C0000E942D138A30910511F00196A9F7EA9438
:1010D000EF2861F48A818F9389818F933F922F92B9
:1010E0000E94E4150F900F900F900F9089819A81C4
:1010F00001970E9758F01F922EE02F935F924F9218
:101100000E94E4150F900F900F900F90E981FA81E3
:10111000CF0101970E9728F6E250ED30A0F4F0E0F1
:101120008827EA56F74F8F4F0C943814F1080C09B2
:101130004B09440B650BC20BD80B170C9A0CFE0C19
:101140003D0D7C0D080887E395E00E94F81580E6C8
:1011500095E00E94F8156AEF70E085E493E00E9444
:10116000E5028093461679991EC02F987A9925C07A
:101170002E987B992CC02D983FEF83EC99E031504D
:1011800080409040E1F700C000000E94DF0F8823FC
:1011900051F380914616882321F00E94C5021092D7
:1011A00046162C9A2FCF80914316882321F00E9457
:1011B000C502109243162F9AD9CF809144168823E6
:1011C00021F00E94C502109244162E9AD2CF80912F
:1011D0004516882321F00E94C502109245162D9ACB
:1011E000CBCF81E08093B01580EA95E00E94F8159E
:1011F00085EC95E00E94F815EFEFF3EC29E0E15063
:10120000F0402040E1F700C000000E94DF0F88237B
:1012100099F31092B015F6CE83EF95E00E94F81581
:1012200085E196E00E94F8159EEAE92E95E1F92EF7
:101230002CEF622E24E0722E09E316E0FF92EF926B
:101240007F926F920E9423160F900F900F900F9035
:10125000019749F087E496E09F938F930E942316AD
:101260000F900F90CFCE31E0309342168091AE15A3
:101270009091AF150E947D038091AF158F9380915F
:10128000AE158F931F930F930E94E4150F900F904C
:101290000F900F90D3CF8BE496E00E94F81582E771
:1012A00096E00E94F8158FEF97EAE1E681509040B2
:1012B000E040E1F700C000008EE896E00E94F815DB
:1012C00061E070E085EA96E00E948C04892B29F0A9
:1012D00088EA96E00E94F81595CE8EED96E00E9481
:1012E000F81589EF96E00E94F81561E070E084E15E
:1012F00097E00E948C04892B21F089E197E00E94FD
:10130000F81561E070E08AE397E00E948C04892B75
:1013100019F086E497E0DECF61E070E089E697E0BF
:101320000E948C04892B21F085E797E00E94F81534
:1013300084EA97E00E94F815FFEF29E638E1F150C2
:1013400020403040E1F700C00000B3E07B2E1FEBEF
:10135000E12E17E0F12E0AE415E184E6682EFF92F3
:10136000EF920E94E415F801262D11922A95E9F7D3
:10137000409117175091181764E670E08AE495E1E0
:101380000E9469130F900F90892B09F05BC086EEC5
:1013900097E00E94F815712C8AE495E19F938F9352
:1013A00081E298E09F938F930E94E4150F900F9035
:1013B0000F900F9085E398E0772009F48BCFF3E04E
:1013C0006F2EA8E5EA2EA8E0FA2E06EE14E1FF92B1
:1013D000EF920E94E415F80124E611922A95E9F7AC
:1013E000409117175091181764E670E086EE94E16B
:1013F0000E9469130F900F90892B09F040C083E879
:1014000098E00E94F815712CE6EEEE2EE4E1FE2E37
:10141000FF92EF9286EC98E09F938F930E94E415E1
:101420000F900F900F900F908EED98E0772009F4B9
:1014300051CF0AE415E180914A1581113CC085E045
:1014400099E048CFF80101900020E9F7CF018B54D3
:10145000954141F489EF97E00E94F8157A94711054
:101460007ECF9ACF0197FC01E65BFA4E20812A30AD
:1014700019F41082892B71F3772473948DCFF801BE
:1014800001900020E9F7CF01875E944141F48AE999
:1014900098E00E94F8156A94611099CFB4CF019733
:1014A000FC01EA51FB4E20812A3009F0ADCF1082B9
:1014B000892B69F3A9CF8091E614811103C081E2E1
:1014C00099E008CFFF92EF921F930F9381E499E088
:1014D0009F938F930E94E41566EE74E18AE495E190
:1014E0000E94DE050F900F900F900F900F900F90BD
:1014F0000097C9F19F938F938BE699E09F938F9309
:101500000E94E41588E999E00E94F81588EA99E0BC
:101510000E94F8158EEC99E00E94F81580EF99E092
:101520000E94F81588E29AE00E94F81581E69AE098
:101530000E94F81587E99AE00E94F81588EA9AE077
:101540000E94F81589ED9AE00E94F81588E09BE06A
:101550000E94F81588E39BE00E94F8150F900F9009
:101560000F900F904FCD1F930F938DE59BE09F93AE
:101570008F930E94E41585E89BE09F938F930E94D0
:10158000E4158AE495E10E949A138AE495E10E94A9
:10159000F8151F930F9384EB9BE09F938F930E940A
:1015A000E4152AE435E146ED57E067E170E0C90152
:1015B0000E947B050FB6F894DEBF0FBECDBF00972B
:1015C00049F09F938F9389ED9BE09F938F930E94A7
:1015D000E415C4CF8AE09CE00E94F81560E072E058
:1015E000FB0101900020E9F7BF016150724080E0EB
:1015F00092E00E9423055AE4E52E55E1F52E6FE2B4
:10160000C62E6CE0D62E71E4A72E7CE0B72E80911A
:10161000E514882371F0FF92EF92DF92CF920E943F
:10162000E41510924A151092E5140F900F900F9048
:101630000F9080916E168823E9F064E686EE94E1BF
:101640000E94A90F8823B1F006EE14E11F930F93B7
:10165000BF92AF920E94E415F80101900020E9F7D3
:10166000BF01675E7441C8010E9423050F900F906F
:101670000F900F90FFEF23EC39E0F1502040304005
:10168000E1F700C00000C3CF80E59CE00E94F815A0
:1016900080911717909118170E942D130A97C1F780
:1016A00080911717909118170E942D138C0160914B
:1016B000191770911A170E94B4150A30110509F410
:1016C000A1CC0F3F1F4F61F79DCC83E89CE00E94A7
:1016D000F81588EA9CE00E94F81564E670E08DEE4B
:1016E00093E00E94E502082E000C990B9093E414FD
:1016F0008093E31417E001E097FF0EC089EF9CE0B0
:101700000E94F8159FEFE7EAF1E69150E040F040C3
:10171000E1F700C0000076CC7A991EC08091E314F6
:101720009FEF980F953078F4082E000C990B0197D5
:10173000189FF001199FF00D1124E55BF94E868189
:101740008823E1F016822FEF35EA8EE021503040F9
:101750008040E1F700C000000E94DF0F8823E1F223
:1017600080914416882321F00E94C50210924416ED
:101770002E9A8091E3140E94C50244CC0683158200
:101780001482E1CF8DE09DE00E94F8157A990BC09C
:101790000E94C7069FEFE3ECF9E09150E040F04073
:1017A000E1F700C000000E94DF0F882379F32ACC04
:1017B00082E59DE00E94F81587E79DE00E94F815FC
:1017C00001EB1DE09601AE014D5F5F4FBE016C5F06
:1017D0007F4FCE0105960E941F06892B19F58C813B
:1017E0001F928F938D811F928F9389811F928F9368
:1017F0008B811F928F931F930F930E94E4150FB656
:10180000F894DEBF0FBECDBF3FEF87EA91E63150BF
:1018100080409040E1F700C000000E94DF0F882365
:1018200089F2F0CB8BED9DE00E94F815EDCF8CEFA7
:101830009DE00E94F8158CE29EE00E94F815EE24CF
:10184000EA94FE2C07E91EE080910B0180688093EA
:101850000B01E5E3EA95F1F7000080910B018F772A
:1018600080930B011092491680912101836080932F
:10187000210180914916811104C08091090186FFE0
:10188000F8CF109225011092240180E020E030E092
:10189000A90190914916911102C0882339F18091D4
:1018A0004916882379F1F092E214E092E1148091D4
:1018B00021018C7F809321018091E1149091E214A9
:1018C0008F3F980761F58CE59EE00E94F8152FEF99
:1018D00037EA81E6215030408040E1F700C0000047
:1018E0000E94DF0F882309F4AFCF8CCB90910901C0
:1018F00096FDCFCF209124013091250150E040E0AA
:1019000081E0C7CFA7E5B1E00E944F14A501940183
:101910000E94F7133093E2142093E114C8CF9F93F1
:101920008F931F930F930E94E4150F900F900F90C9
:101930000F90CDCF88EA9EE00E94F815809191002B
:1019400082608093910083ED9EE09F938F930E942D
:10195000E4150F900F902CEFE22E24E0F22E35E1EB
:10196000732E05E21FE0DF92CF92FF92EF920E946A
:1019700023160F900F900F900F90019731F08091E8
:101980009100887F8093910065CC89819A81865AE5
:101990009F4F853B910528F08DEE9EE00E94F81543
:1019A000E2CF789E9001799E300D1124245B3B4F4D
:1019B000309399002093980089819AE5980F953B80
:1019C00080F4082E000C990B865A9F4F789E900148
:1019D000799E300D1124245B3B4F30939B00209364
:1019E0009A008A818F9389818F931F930F930E940E
:1019F000E4150F900F900F900F90B5CF8FE39FE0FD
:101A00000E94F8158BE69FE00E94F81591EEE92EF2
:101A10009FE0F92E0FEF13E080911617811112C08D
:101A200088E99FE00E94F8158FEF97EAE1E6815080
:101A30009040E040E1F700C000000E94DF0F8823E3
:101A400059F3E0CA87E090E00E94FE008115E4E0CF
:101A50009E0778F49801281B390BC9019F938F9337
:101A6000FF92EF920E94E4150F900F900F900F904D
:101A7000DBCF8F3F980791F7D3CF8BEF9FE00E948A
:101A8000F8158FE290E10E94F8158BECE82E80E1CA
:101A9000F82E0FEF13E080910F17811112C08CE622
:101AA00090E10E94F8158FEF97EAE1E681509040AF
:101AB000E040E1F700C000000E94DF0F882359F3E7
:101AC000A1CA90E080E00E94FE008115F4E09F072B
:101AD00078F49801281B390BC9019F938F93FF92CB
:101AE000EF920E94E4150F900F900F900F90DBCFB4
:101AF0008F3F980791F7D3CF8DEE90E10E94F815B4
:101B00000E9459027FCA1F920F920FB60F921124A2
:101B10000BB60F922F933F934F935F936F937F93E7
:101B20008F939F93AF93BF93EF93FF93CF93DF93E5
:101B30001F92CDB7DEB720913601298380910C1713
:101B400090910D170097E9F4E0910A17F0910B17A7
:101B5000822F309721F50F90DF91CF91FF91EF9178
:101B6000BF91AF919F918F917F916F915F914F91B5
:101B70003F912F910F900BBE0F900FBE0F901F90B3
:101B80001895BE016F5F7F4F0E94250489818A30BE
:101B900011F7E0910A17F0910B173097E1F21995C0
:101BA000DACF1F920F920FB60F9211240BB60F923D
:101BB0002F933F934F935F936F937F938F939F9355
:101BC000AF93BF93EF93FF93CF93DF931F92CDB764
:101BD000DEB72091D60029838091081790910917CC
:101BE0000097E9F4E0910617F0910717822F3097DC
:101BF00021F50F90DF91CF91FF91EF91BF91AF91C0
:101C00009F918F917F916F915F914F913F912F9114
:101C10000F900BBE0F900FBE0F901F901895BE0136
:101C20006F5F7F4F0E94250489818A3011F7E09110
:101C30000617F09107173097E1F21995DACF1F9246
:101C40000F920FB60F9211240BB60F922F933F9362
:101C50004F935F936F937F938F939F93AF93BF93B4
:101C6000EF93FF93CF93DF931F92CDB7DEB7209111
:101C7000CE00298380910417909105170097E9F40D
:101C8000E0910217F0910317822F309721F50F9002
:101C9000DF91CF91FF91EF91BF91AF919F918F9184
:101CA0007F916F915F914F913F912F910F900BBE5C
:101CB0000F900FBE0F901F901895BE016F5F7F4F62
:101CC0000E94250489818A3011F7E0910217F09172
:101CD00003173097E1F21995DACF1F920F920FB6E2
:101CE0000F9211240BB60F922F933F934F935F9354
:101CF0006F937F938F939F93AF93BF93EF93FF93D4
:101D0000CF93DF931F92CDB7DEB72091C600298312
:101D100080910017909101170097E9F4E091FE1669
:101D2000F091FF16822F309731F50F90DF91CF9110
:101D3000FF91EF91BF91AF919F918F917F916F91A3
:101D40005F914F913F912F910F900BBE0F900FBE5F
:101D50000F901F901895BE016F5F7F4F0E94250462
:101D600089818D3011F08A3001F7E091FE16F091F3
:101D7000FF163097D1F21995D8CF1F920F920FB658
:101D80000F9211240BB60F921F932F933F934F93F3
:101D90005F936F937F938F939F93AF93BF93CF93F3
:101DA000DF93EF93FF93CBE4D6E111E0E881F98173
:101DB000309789F08E81882371F08C819D81019606
:101DC0009D838C832A813B818217930720F01D829B
:101DD0001C82812F199527961F5F163039F7FF91C6
:101DE000EF91DF91CF91BF91AF919F918F917F91B3
:101DF0006F915F914F913F912F911F910F900BBE6B
:101E00000F900FBE0F901F9018951F920F920FB654
:101E10000F9211248F9381E0809349168F910F9038
:101E20000FBE0F901F9018951F920F920FB60F9232
:101E300011240BB60F922F933F934F935F936F93A1
:101E40007F938F939F93AF93BF93EF93FF93E09113
:101E50004716F09148161995FF91EF91BF91AF91F8
:101E60009F918F917F916F915F914F913F912F91B2
:101E70000F900BBE0F900FBE0F901F9018951F92E2
:101E80000F920FB60F9211240BB60F922F933F9320
:101E90004F935F936F937F938F939F93AF93BF9372
:101EA000EF93FF93A59840914216E0914116442389
:101EB00009F442C08E2F0E2E000C990B23E030E067
:101EC000241B310982179307B9F58F5D9D4FDC0103
:101ED000EC910E2E000CFF0BE55CFD4F80818068BD
:101EE00080950E9458039091411681E001C0880FAF
:101EF0009A95EAF70E945803A59A80914116082EF8
:101F0000000C990B019664E070E00E94E31380934B
:101F10004116FF91EF91BF91AF919F918F917F916A
:101F20006F915F914F913F912F910F900BBE0F904A
:101F30000FBE0F901F9018950E2E000CFF0BEF5D3B
:101F4000FD4FE0810E2E000CFF0BE55CFD4F808104
:101F5000C7CFCF92DF92EF92FF921F93CF93DF9381
:101F60001F92CDB7DEB76C0110E0862F8150990B20
:101F70007C01BE016F5F7F4F809100179091011728
:101F80000E94F003212F30E0F601E20FF31F8823B7
:101F900031F089818A3019F02E153F056CF01082DE
:101FA00010926E16812F0F90DF91CF911F91FF90AD
:101FB000EF90DF90CF9008951F5F8083DACF8091FC
:101FC0006E16811102C080E00CC065E08CED94E1DA
:101FD0000E94A90F8823B9F381E09091DC14913716
:101FE00091F781700895CF93DF93CDB7DEB7CE59C7
:101FF000D1400FB6F894DEBF0FBECDBF1092C50022
:1020000080E18093C40082E08093C00088E18093E7
:10201000C10086E08093C200009100171091011763
:102020000115110561F0F801808191810E94F6147B
:10203000C8010E94F61410920117109200178BE04D
:1020400090E00E945A148C01892B31F410920117F0
:10205000109200172C98FFCF80E290E00E945A1453
:10206000F80191838083892B21F4C8010E94F61422
:10207000EDCF80E290E09383828381E090E09583CE
:102080008483178216821186108612861093011798
:102090000093001786EF91E09093FF168093FE1651
:1020A0008091C10080688093C10082E396E124EEB4
:1020B00031E030933B1620933A162FE534E030930D
:1020C0003D1620933C1623E02093351610923F16C0
:1020D00010923E16909318178093171790931A1723
:1020E0008093191790931C1780931B1778948AE29A
:1020F00091E10E94F81584B1806F84B985B1806F39
:1021000085B980B3817F80BB81B38E6081BB9D9A8E
:1021100080910101806280930101809101018061C1
:1021200080930101809181008860809381008FEC11
:1021300097E0909389008093880080916F0082607F
:1021400080936F008091810082608093810081E1A3
:1021500080932402809323028093220280932102A1
:102160001092200188E08093210184ED90E3909308
:10217000290180932801809173008260809373000D
:1021800080910A01806880930A0187E090E00E94B4
:10219000CD0090E080E00E94CD00529880916900CF
:1021A000806180936900EA9A8AE794E090934816E8
:1021B000809347161092D50080E18093D40082E08E
:1021C0008093D00088E18093D10086E08093D20094
:1021D0008CED91E090930717809306178091D100C2
:1021E00080688093D10082E796E00E94F815FFEFA7
:1021F0002FE433ECF15020403040E1F700C0000004
:1022000080E691E10E94F81561E070E085EA96E0D1
:102210000E948C04892B19F085E891E102C08EEDB3
:1022200096E00E94F81588EB91E10E94F81561E0B4
:1022300070E084E197E00E948C04892B09F060C073
:102240008FEC91E10E94F8158FEF91E10E94F81553
:1022500061E070E08AE397E00E948C04892B09F02A
:1022600052C08FE192E10E94F81582E592E10E944E
:10227000F81561E070E089E697E00E948C04892BF4
:1022800009F044C08CE792E10E94F8158FEC92E1CE
:102290000E94F8156EEF72E189E093E10E94DE057D
:1022A0000097B9F588E193E10E94F8150E94D406E1
:1022B000809340168091900082608093900080917E
:1022C000910088618093910080919000806A809352
:1022D000900080E49CE9909397008093960088EBAF
:1022E0009BE090939B0080939A0090939900809339
:1022F00098008DB188618DB97A9918C00E94E9075C
:102300008EED91E19FCF89E392E1ADCF80EA92E13A
:10231000BBCF9F938F9384E493E19F938F930E940D
:10232000E4150F900F900F900F90C4CF68EE73E0FC
:1023300085EC93E00E94E5020E9459028091910091
:10234000826080939100ACE4EA2EA4E0FA2E06EAC3
:102350001FEFB5E2CB2EBFE0DB2EF0929900E092AA
:1023600098001F930F93DF92CF920E94E4158FEF96
:1023700091EEE4E081509040E040E1F700C00000C1
:10238000065F1F4FF2EDEF0EF11C0F900F900F90B4
:102390000F900436110509F780919100887F809392
:1023A000910061E070E085EA96E00E948C04892B40
:1023B00009F039C188E893E10E94F8150E94C70628
:1023C000512C88248A9473E0972EEAE06E2E712CAB
:1023D0008E010F5F1E4F5E0129E6A21A2EEFB20A90
:1023E000FCE82F2EF4E13F2E8091401681110DC0A4
:1023F000539434E0351548F488ED93E10E94F815C4
:102400000E94D40680934016512C9E0124563E4FC4
:10241000AE0145565E4FBE0162567E4FCE018356D9
:102420009E4F0E941F0680911617EE24EA94FE2C00
:10243000882369F087E090E00E94FE007C01E114AF
:1024400084E0F80620F4F401EE19FF097F01809181
:102450000F17CC24CA94DC2C882369F090E080E02C
:102460000E94FE006C018115F4E09F0720F49401A6
:10247000281B390B690131E030934216C556DE4FF7
:102480002881CB59D1404AE0442EC456DE4F888182
:10249000CC59D14090E0249D800D911D11240E94C3
:1024A0007D03C601B3010E94CF139F938F937F9347
:1024B0006F93C701B3010E94CF139F938F937F93B4
:1024C0006F93C256DE4F8881CE59D140642D0E9451
:1024D000C3131F929F93C356DE4F8881CD59D140BD
:1024E0001F928F93C456DE4F8881CC59D1400E94F1
:1024F000C3131F929F93C556DE4F8881CB59D1409D
:102500001F928F931F9281E08F93E2EFF3E1FF938D
:10251000EF931F9286E98F931F930F930E943716B4
:102520000FB6F894DEBF0FBECDBF80914016882352
:1025300009F48CC0F80101900020E9F731977F0180
:10254000E01AF10A670197E1C90ED11CB501C60175
:102550000E94D803482F50E0C40ED51EEFEFCE1ACC
:10256000DE0AF1E0CF16DF0608F063C090E399833E
:10257000DE011296F5019D019E2F9A19981708F415
:1025800055C0240F351FF9011082E2E0E80F21E069
:1025900030E02C0F3D1F2E0F311DF90195E1908386
:1025A000A3E0A80FE1E0F0E0EC0FFD1FEA0FF11D42
:1025B000DF012CE5C22E24E1D22EF60101900D920E
:1025C0009A95E1F738E1432E480EA701B80181E062
:1025D00090E08C0F9D1F840D911D0E947F15842D0E
:1025E0008E0D682F70E0CE0101960E942305892B85
:1025F00001F51F930F93DF92CF9282E794E19F93AF
:102600008F930E94E4150F900F900F900F900F90F2
:102610000F909FEFE7EAF1E69150E040F040E1F7DC
:1026200000C00000E1CE8DEA93E1C6CE91919D936A
:10263000A3CF109240161F930F933F922F920E94A8
:10264000E4150F900F900F900F90E3CF1F930F930F
:1026500024EB34E13F932F93F2CFCF93DF93EC0140
:102660002B8120FF1AC026FF0CC02F7B2B838E816D
:102670009F8101969F838E838A8190E0DF91CF9125
:10268000089522FF18C0E881F9818081082E000C8E
:10269000990B009729F420622B838FEF9FEFEECFE9
:1026A0003196F983E8832E813F812F5F3F4F3F832F
:1026B0002E839927E3CFEA85FB85199597FFF3CF02
:1026C0002B81019621F080E2822B8B83E6CF80E183
:1026D000FBCFCF92DF92EF92FF920F931F93CF9396
:1026E000DF93FA01238120FD0BC080E090E0DF91B1
:1026F000CF911F910F91FF90EF90DF90CF900895B1
:102700001616170694F77A018C01EB016C01C130A3
:10271000D10561F0C7010E942D138F3F980729F35F
:10272000F60181936F0121970A9789F7F6011082CC
:10273000C801DDCF0F931F93CF93DF93E09117175D
:10274000F0911817238120FD07C080E090E0DF9111
:10275000CF911F910F910895C92FD82F082F192FAE
:1027600080911717909118170E942D138F3F98078B
:1027700061F3F80181938F010A9791F731971082E5
:102780008D2F9C2FE4CF991B79E004C0991F9617D9
:1027900008F0961B881F7A95C9F780950895AA1BA3
:1027A000BB1B51E107C0AA1FBB1FA617B70710F03C
:1027B000A61BB70B881F991F5A95A9F7809590956E
:1027C000BC01CD01089597FB072E16F4009407D0A5
:1027D00077FD09D00E94CF1307FC05D03EF49095F9
:1027E00081959F4F0895709561957F4F0895A1E25F
:1027F0001A2EAA1BBB1BFD010DC0AA1FBB1FEE1F7B
:10280000FF1FA217B307E407F50720F0A21BB30BC5
:10281000E40BF50B661F771F881F991F1A9469F741
:1028200060957095809590959B01AC01BD01CF019D
:102830000895052E97FB1EF400940E94301457FD56
:1028400007D00E94F71307FC03D04EF40C94301409
:1028500050954095309521953F4F4F4F5F4F0895CC
:1028600090958095709561957F4F8F4F9F4F0895FC
:10287000EE0FFF1F881F8BBF0790F691E02D199474
:10288000A29FB001B39FC001A39F700D811D1124B1
:10289000911DB29F700D811D1124911D08950E94FC
:1028A0004014A59F900DB49F900DA49F800D911D85
:1028B000112408950F931F93CF93DF9382309105D6
:1028C00010F482E090E0E0911F17F091201730E0C3
:1028D00020E0B0E0A0E0309799F42115310509F42B
:1028E0004AC0281B390B24303105D8F58A819B81D9
:1028F0006115710589F1FB0193838283FE0111C08B
:10290000408151810281138148175907E0F048172F
:10291000590799F4109761F012960C931297139639
:102920001C933296CF01DF91CF911F910F910895A3
:1029300000931F1710932017F4CF2115310551F084
:102940004217530738F0A901DB019A01BD01DF01ED
:10295000F801C1CFEF01F9CF9093201780931F1793
:10296000CDCFFE01E20FF31F8193919322503109E5
:1029700039832883D7CF20911D1730911E17232B21
:1029800041F4209137023091380230931E17209382
:102990001D1720913502309136022115310541F481
:1029A0002DB73EB74091390250913A02241B350BA6
:1029B000E0911D17F0911E17E217F307A0F42E1BEC
:1029C0003F0B2817390778F0AC014E5F5F4F241793
:1029D000350748F04E0F5F1F50931E1740931D1789
:1029E000819391939FCFF0E0E0E09CCFCF93DF9372
:1029F0000097E9F0FC01329713821282A0911F1711
:102A0000B0912017ED0130E020E01097A1F4208173
:102A10003181820F931F20911D1730911E172817A7
:102A2000390709F061C0F0931E17E0931D17DF917D
:102A3000CF910895EA01CE17DF07E8F54A815B815F
:102A40009E0141155105B1F7E901FB83EA834991E4
:102A50005991C40FD51FEC17FD0761F48081918156
:102A60000296840F951FE90199838883828193815F
:102A70009B838A83F0E0E0E012968D919C911397FE
:102A80000097B9F52D913C911197CD010296820FD7
:102A9000931F20911D1730911E172817390739F6FB
:102AA000309751F51092201710921F17B0931E17F0
:102AB000A0931D17BCCFD383C28340815181840F63
:102AC000951FC817D90761F44E5F5F4F88819981C0
:102AD000480F591F518340838A819B81938382834E
:102AE0002115310509F0B0CFF0932017E0931F179F
:102AF0009ECFFD01DC01C0CF13821282D7CFFB0134
:102B0000DC0102C001900D9241505040D8F7089569
:102B1000FB01DC010D900020E9F7119701900D9267
:102B20000020E1F70895FB01DC0101900D920020E7
:102B3000E1F70895FB0151915523A9F0BF01DC0194
:102B40004D9145174111E1F759F4CD010190002055
:102B500049F04D9140154111C9F3FB014111EFCFEF
:102B600081E090E0019708950F931F93CF93DF9337
:102B7000182F092FEB018B8181FD09C01FEF0FEF8B
:102B8000812F902FDF91CF911F910F91089582FF98
:102B900014C02E813F818C819D81281739073CF418
:102BA000E881F981CF0101969983888310838E8112
:102BB0009F8101969F838E83E3CFE885F985812FDE
:102BC0001995892BA1F3DACFCF93DF93CDB7DEB779
:102BD000AE014A5F5F4FFA0161917191AF0180913F
:102BE000191790911A170E94A416DF91CF9108959A
:102BF0000F931F93CF93DF93E0911917F0911A175A
:102C00002381EC0110E000E021FD08C00FEF1FEF71
:102C100014C01995892B11F00FEF1FEF8991609166
:102C2000191770911A17DB011896ED91FC9181111B
:102C3000F0CF8AE01995892B49F7C801DF91CF9130
:102C40001F910F910895CF93DF93CDB7DEB7AE01FB
:102C50004A5F5F4FFA0161917191AF01809117173F
:102C6000909118170E94501ADF91CF9108950F93F9
:102C70001F93CF93DF93CDB7DEB72E970FB6F8949F
:102C8000DEBF0FBECDBF0E891F89888D998D26E0CE
:102C90002C831A83098397FF02C080E090E8019794
:102CA0009E838D83AE01445E5F4F6A8D7B8DCE0126
:102CB00001960E94A4164D815E8157FD0AC02F81A6
:102CC0003885421753070CF49A01020F131FF801BD
:102CD00010822E960FB6F894DEBF0FBECDBFDF91E7
:102CE000CF911F910F9108950F931F93CF93DF936F
:102CF000CDB7DEB72E970FB6F894DEBF0FBECDBFAF
:102D00000E891F8986E08C831A8309838FEF9FE7E2
:102D10009E838D83AE01465E5F4F688D798DCE01B7
:102D200001960E94A4162F813885020F131FF80107
:102D300010822E960FB6F894DEBF0FBECDBFDF9186
:102D4000CF911F910F9108952F923F924F925F92D2
:102D50006F927F928F929F92AF92BF92CF92DF92AB
:102D6000EF92FF920F931F93CF93DF9300D000D089
:102D700000D01F921F92CDB7DEB77C013B018A01C4
:102D8000FC0117821682838181FFDDC1CE0101968D
:102D90005C01F7019381F30193FD859193FF81918C
:102DA0003F01882309F453C1853239F493FD85919D
:102DB00093FF81913F01853229F4B70190E00E9491
:102DC000B415E7CF912C212C312CFFE1F31538F00D
:102DD0008B3211F190F4803209F1833229F137FC02
:102DE0003CC020ED280F2A3050F536FE20C08AE086
:102DF000989E200D1124922E06C08D3291F08033C2
:102E000071F7689430F8F30193FD859193FF8191F8
:102E10003F018111DACF21C0689431F8689432F80B
:102E2000F2CF689433F8EFCF689434F8ECCFEAE04F
:102E30002E9E200D1124222E689435F8E4CF8E3278
:102E400029F436FC04C1689436F8DDCF8C3619F4C9
:102E5000689437F8D8CF8836B1F2982F9F7D955473
:102E60009330E0F08336A1F18337C1F1833509F067
:102E700063C02801F2E04F0E511CF801C080D180E0
:102E8000692D70E036FC02C06FEF7FEFC6010E9433
:102E90007D1B4C01689437F882010AC00C5F1F4FFC
:102EA000FFE3F98388248394912C6501E89437F833
:102EB00033FE2DC0522C8114910471F5552009F474
:102EC00068CFB70180E290E00E94B4155A94F6CF23
:102ED000F801808189830E5F1F4FE4CF2801F2E063
:102EE0004F0E511CF801C080D180692D70E036FC76
:102EF00002C06FEF7FEFC6010E94881B4C01820168
:102F0000D5CFB70180E290E00E94B4152A9428142E
:102F1000190409F0B0F7CECFF60137FC859137FEE2
:102F200081916F01B70190E00E94B41551105A943D
:102F3000F1E08F1A9108BFCF843619F0893609F075
:102F400077C0F80137FE6BC0608171818281938107
:102F50000C5F1F4FF32DFF763F2E97FF09C0909512
:102F60008095709561957F4F8F4F9F4F689437F88C
:102F70002AE030E0A5010E94AB1BC82ECA188C2C99
:102F8000432C36FE0CC0E89440F8C91440F434FEDB
:102F900005C032FC03C0F32DFE7E4F2E892C44FE6B
:102FA000AAC0FE01EC0DF11D8081803309F09CC0A8
:102FB000242D297E422E842D8870582E43FCAAC0D1
:102FC00040FEA4C09C2C821418F42C0C922C98184F
:102FD00044FEA6C0B70180E390E00E94B41542FE13
:102FE00009C088E790E041FE02C088E590E0B701A3
:102FF0000E94B415C91408F49FC0CA94D12C9FEF45
:10300000C91AD90ACA0CDB1CF60182916F01B701FB
:1030100090E00E94B415AC14BD04B1F74FCF6081AD
:103020007181072E000C880B990B0E5F1F4F92CFFA
:10303000D32CE894D4F82AE030E08537E1F1232D51
:10304000297FD22E8F36A9F1F0F4883551F1F7019E
:10305000868197812B960FB6F894DEBF0FBECDBF49
:10306000DF91CF911F910F91FF90EF90DF90CF9064
:10307000BF90AF909F908F907F906F905F904F9098
:103080003F902F900895803749F0883701F7D4FE9C
:1030900002C06894D2F820E130E00DC06894D4F802
:1030A000F6CF34FE03C0822F8660D82E20E132E0B6
:1030B00002C028E030E0F801D7FE0FC060817181C6
:1030C000828193810C5F1F4FA5010E94AB1BC82E0C
:1030D000CA183D2CE89437F852CF6081718190E096
:1030E00080E00E5F1F4FF0CF42FC02C0839463CF9D
:1030F0008394839460CF842D867809F45CCFF6CFD7
:10310000B70180E290E00E94B41583948214C0F36A
:10311000512C5ECF522C5818821408F459CFF8CF96
:10312000842D867809F466CF8BE241FE80E247FC6D
:103130008DE2B70190E05CCFB70180E390E00E94A0
:10314000B4159A9457CF8FEF9FEF84CF20FD09C01D
:10315000FC0123FD05C022FF02C0738362835183FB
:103160004083089544FD17C046FD1DC0DB01FC01EE
:10317000AA0FBB1FEE1FFF1F1094D1F76A0F7B1F12
:103180008E1F9F1F660F771F881F991F620F711D6B
:10319000811D911D089533E0660F771F881F991FC9
:1031A0003150D1F7F3CF34E0F7CF0F931F93CF9384
:1031B000DF938C01C8010E942D13EC0197FD08C01C
:1031C0000E94691B892BB1F7B801CE010E94931BA5
:1031D000CE01DF91CF911F910F9108958F929F9211
:1031E000AF92BF92EF92FF920F931F93CF93DF9313
:1031F0008C01D62F7A01B22E0E942D139C01332709
:103200002B32310529F02D323105A9F46894B7F835
:10321000D15061F480E0DF91CF911F910F91FF9029
:10322000EF90BF90AF909F908F900895C8010E943B
:103230002D1397FDEFCFCB2DCD7F2B2D2073F9F4E0
:103240008033E9F4AA24AA94AD0E89F0C8010E9443
:103250002D1397FD0CC0282F2F7D283561F4C264F3
:10326000D25029F0C8010E942D1397FF08C0812C6D
:10327000912C54011BC0B6FE2BC0C260DA2D812CEC
:10328000912C540120ED280F283028F1C4FD09C0ED
:103290002A3008F1C6FF05C02F7D3FEE320F3630D1
:1032A000C8F0B8010E94931BC1FFB4CFC7FF08C08C
:1032B000B094A09490948094811C911CA11CB11C8A
:1032C0002C2FB501A401C7010E94A61881E0A3CF4D
:1032D000C261D4CF27504C2FC501B4010E94B2184F
:1032E0004B015C01C260D15009F3C8010E942D134B
:1032F00097FFC8CFD9CF7F928F929F92AF92BF9204
:10330000CF92DF92EF92FF920F931F93CF93DF93B1
:10331000CDB7DEB7A0970FB6F894DEBF0FBECDBF16
:103320005C01962E7A01CE0101966C0180E2F601D5
:1033300011928A95E9F7F501B381890130E020E027
:10334000712C812CA0E041E050E0F801B3FD8591A3
:10335000B3FF8191982F8F01811117C010E000E019
:10336000C801A0960FB6F894DEBF0FBECDBFDF91A7
:10337000CF911F910F91FF90EF90DF90CF90BF9072
:10338000AF909F908F907F9008958E3519F42115FE
:10339000310541F1A21713064CF48D3549F18D32F8
:1033A00029F4811006C0882483941DC0882009F464
:1033B00064C0E92FE695E695E695EC0DFD2DF11D2F
:1033C000892F8770BA0101C0660F8A95EAF780815C
:1033D000682B6083791651F0971510F49F5FE9CF41
:1033E0009150E7CFA1E02F5F3F4FAFCF812CFBCFB4
:1033F000882019F08E8180628E83AA2359F0F6010D
:103400009E012F5D3F4F8081809580833196E2172A
:10341000F307C9F788248394C5010E942D1397FDF3
:1034200016C0E82FE695E695E695EC0DFD2DF11D0D
:10343000208130E0AC014770552702C035952795B3
:103440004A95E2F720FD06C0B5010E94931B882033
:1034500069F084CFE114F10429F0F7018083C701FA
:1034600001967C019A94812C9110D6CFE114F1043D
:1034700009F476CFF701108273CFE82FE695E69531
:10348000E695EC0DFD2DF11D982F9770BA0101C046
:10349000660F9A95EAF79081692B6083782EA3CF07
:1034A0005F926F927F928F929F92AF92BF92CF92D4
:1034B000DF92EF92FF920F931F93CF93DF936C01F4
:1034C000EB015A01FC0117821682512CF601E380B0
:1034D000FE01E3FC8591E3FE8191182FEF01882323
:1034E000E9F090E00E94691B892B21F0C6010E943F
:1034F000D518ECCF153241F4FE01E3FC1591E3FE43
:103500001191EF01153269F4C6010E942D1397FD48
:103510008EC01817D9F2B6010E94931B852D90E03A
:103520008AC000E01A3231F4E3FC1591E3FE1191F8
:10353000EF0101E0F12C20ED210F2A3048F101FFCD
:1035400037C0FF2059F31836B1F11C3609F43DC0DD
:10355000112321F3612F70E088E491E00E94721B37
:10356000892BE1F2912C812C00FD06C0F5018080B1
:103570009180C50102965C011E3679F5F6014681FF
:10358000578170E060E0202FC4010E94A6189ECFF2
:1035900002606F2D70E090E080E040E20E94B2187F
:1035A000F62EFE01E3FC1591E3FE1191EF01C3CF6E
:1035B000FF24FA94C8CFFE01E3FC1591E3FE1191BC
:1035C000EF01183609F0C4CF08600460FE01E3FC87
:1035D0001591E3FE1191EF01BBCF1336C1F401FD4C
:1035E00002C0FF24F394C6010E942D1397FD1FC053
:1035F0008114910429F0F4018083C40101964C01E7
:10360000FA94F110F0CF00FD61CF53945FCF1B35DA
:1036100011F59E01A4016F2DC6010E947B19EC01DA
:10362000892B89F7F6018381807309F477CF8FEFB7
:103630009FEF511073CFDF91CF911F910F91FF90AA
:10364000EF90DF90CF90BF90AF909F908F907F9042
:103650006F905F900895C6010E94D51897FDE7CF3F
:103660001F36A9F130F4143641F0193639F00064F0
:1036700005C01337B9F01537D1F70062202FA40128
:103680006F2DC6010E94EE188111BDCFCBCF8114E2
:10369000910429F0F4016082C40101964C01FA946E
:1036A000FF2071F0C6010E942D133C0197FD08C058
:1036B0000E94691B892B59F3B601C3010E94931B19
:1036C0008114910409F49FCFF40110829CCF006112
:1036D000D5CF91110C94091C803219F08950855076
:1036E000C8F70895FC010590061621F00020D9F7CF
:1036F000C00108953197CF010895FC0105906150F4
:1037000070400110D8F7809590958E0F9F1F0895F7
:10371000FC016150704001900110D8F780959095A0
:103720008E0F9F1F0895FB01238120FF11C026FDEE
:103730000FC08F3F980771F082832F7D2064238311
:1037400026813781215031093783268399270895AF
:103750008FEF9FEF0895FA01AA27283051F1203109
:1037600081F1E8946F936E7F6E5F7F4F8F4F9F4F15
:10377000AF4FB1E03ED0B4E03CD0670F781F891F57
:103780009A1FA11D680F791F8A1F911DA11D6A0F25
:10379000711D811D911DA11D20D009F468943F91D8
:1037A0002AE0269F11243019305D3193DEF6CF01D7
:1037B0000895462F4770405D4193B3E00FD0C9F79D
:1037C000F6CF462F4F70405D4A3318F0495D31FD0A
:1037D0004052419302D0A9F7EACFB4E0A69597955D
:1037E000879577956795BA95C9F700976105710533
:1037F00008959B01AC010A2E06945795479537957D
:103800002795BA95C9F7620F731F841F951FA01DD6
:0C3810000895992788270895F894FFCFA9
:10381C0057656C636F6D652066726F6D20534550F4
:10382C003420496F54206861726477617265210A93
:10383C00000303030301000100010001000100016A
:10384C0000010001000000211780003F065B4F665D
:10385C006D7D077F6F777C395E797140002B495005
:10386C00442C004F4B0D0A004F4B004552524F5207
:10387C00004641494C0041542B43495053454E445A
:10388C003D0025750041542B43495053544152542B
:10389C003D22544350222C2200222C0041542B4315
:1038AC00574A41503D22003139322E3136382E31B3
:1038BC002E3631004661696C656420746F206F7020
:1038CC00656E2054435020746F2062726F6B65726A
:1038DC002025733A25752E204572726F7220636F06
:1038EC0064653A2025640A0061726475696E6F5FC5
:1038FC006D6567615F303031004661696C656420CD
:10390C00746F2073656E64204D51545420434F4E98
:10391C004E454354207061636B65742E004D5154B9
:10392C005420434F4E4E4543542073656E7420749F
:10393C006F2062726F6B65722025733A2575202893
:10394C00636C69656E745F69643D2573292E0A008A
:10395C00092D2D2D2D2D2D2D2D2D2D2D2D2D2D2DAF
:10396C002D2D204D2045204E2055202D2D2D2D2D3B
:10397C002D2D2D2D2D2D2D2D2D2D2D2D2D000920C9
:10398C00312E20427574746F6E20616E64204C452C
:10399C0044000920322E205049522053656E736F1B
:1039AC0072202848432D53523530312900092033D9
:1039BC002E20446973706C6179000920342E2057D5
:1039CC00694669202845535038323636290009207B
:1039DC00352E20737464696F000920362E205469CB
:1039EC006D6572000920372E2042757A7A65720057
:1039FC000920382E2054656D70657261747572657E
:103A0C0020616E642068756D6964757479207365C6
:103A1C006E736F72202844485431312900092039C3
:103A2C002E2050726F78696D6974792073656E738E
:103A3C006F72202848432D535230342900093130FD
:103A4C002E20536572766F206D6F746F7220285321
:103A5C0047393029000931312E204C6967687420B0
:103A6C0073656E736F7220284B592D3031382900D5
:103A7C000931322E20536F696C204D6F6973747548
:103A8C0072652053656E736F7220282063617061BC
:103A9C006369746976652029000931332E20506CD6
:103AAC006179205374617220576172732074686558
:103ABC006D65206F6E2074686520737065616B6531
:103ACC0072000931342E2053686F7720416363658F
:103ADC006C65726F6D657465722076616C7565735B
:103AEC0020284144584C333435290043686F6F7398
:103AFC006520612064726976657220746F2074652C
:103B0C0073742028312D2564293A2000256400493E
:103B1C006E76616C696420696E7075742E20506CC1
:103B2C006561736520656E7465722061206E756DBC
:103B3C00626572206265747765656E203120616EF6
:103B4C00642025643A2000427574746F6E20616E97
:103B5C0064204C4544206472697665722E20547939
:103B6C0070652027712720746F20657869742E008A
:103B7C004C454420342076696C6C20626C696E6B09
:103B8C002E2050757368206120627574746F6E20DE
:103B9C00746F206C69676874206F6E65206F662087
:103BAC00746865206F74686572204C4544732E00F0
:103BBC005049522073656E736F722064726976651A
:103BCC00722E20547970652027712720746F206520
:103BDC007869742E004C454420312073686F756CE5
:103BEC0064207475726E206F6E207768656E206D20
:103BFC006F74696F6E206973206465746563746596
:103C0C00642E00446973706C617920647269766506
:103C1C00722E20547970652027712720746F2065CF
:103C2C007869742E00547970652061206E756D6210
:103C3C006572206265747765656E202D393939207F
:103C4C00616E64203939393900447520736B7265A3
:103C5C00763A2025640A00252A73005769466920A4
:103C6C006472697665722064656D6F2E2050726582
:103C7C00737320526573657420746F206578697452
:103C8C002E00496E697469616C697A696E67205798
:103C9C00694669206D6F64756C652E2E2E00546517
:103CAC007374696E672057694669206D6F64756C13
:103CBC00652E2E2E004154004572726F723A2057B9
:103CCC00694669206D6F64756C65206E6F74207227
:103CDC006573706F6E64696E672E20436865636BE5
:103CEC0020636F6E6E656374696F6E732E00576917
:103CFC004669206D6F64756C6520697320726573FD
:103D0C00706F6E736976652E00436F6E66696775AA
:103D1C0072696E672057694669206D6F64756C65B2
:103D2C002E2E2E0041544530005761726E696E671D
:103D3C003A20436F756C64206E6F742064697361F4
:103D4C00626C65206563686F2E0041542B43574DA0
:103D5C004F44453D31004572726F723A20436F7586
:103D6C006C64206E6F742073657420737461746955
:103D7C006F6E206D6F64652E0041542B4349504D7E
:103D8C0055583D30005761726E696E673A20436F2B
:103D9C00756C64206E6F74207365742073696E6724
:103DAC006C6520636F6E6E656374696F6E206D6FEA
:103DBC0064652E0047657420726561647920746FA8
:103DCC0020656E74657220535349442E2E2E004587
:103DDC006E74657220574946492053534944202834
:103DEC006D61782E2032372063686172616374656F
:103DFC007273293A20004572726F72207265616489
:103E0C00696E6720535349440053534944206361FE
:103E1C006E6E6F7420626520656D7074792E205003
:103E2C006C656173652074727920616761696E2EAF
:103E3C00005353494420656E74657265643A2027BB
:103E4C002573270A004572726F723A204661696CBD
:103E5C00656420746F207265616420612076616CEA
:103E6C006964205353494400456E74657220574968
:103E7C0046492070617373776F726420286D617886
:103E8C002E20323720636861726163746572732906
:103E9C003A20004572726F722072656164696E67B8
:103EAC002070617373776F72640050617373776FF6
:103EBC0072642063616E6E6F7420626520656D7034
:103ECC0074792E20506C6561736520747279206151
:103EDC006761696E2E0050617373776F7264206531
:103EEC006E74657265643A20272573270A00457243
:103EFC00726F723A204661696C656420746F20722F
:103F0C0065616420612076616C69642070617373F3
:103F1C00776F7264004572726F723A205353494442
:103F2C002063616E6E6F7420626520656D707479AC
:103F3C00004572726F723A2050617373776F7264BE
:103F4C002063616E6E6F7420626520656D7074798C
:103F5C0000436F6E6E656374696E6720746F202703
:103F6C0025732720776974682070617373776F727B
:103F7C006420272573272E2E2E0A004661696C6556
:103F8C006420746F206A6F696E2057694669206ED1
:103F9C006574776F726B2E204572726F7220636F2F
:103FAC0064653A2025640A004572726F72206D6553
:103FBC00616E696E67733A00202030203D205749AE
:103FCC0046495F4F4B2028636F6E6E656374696F53
:103FDC006E207375636365737366756C290020209E
:103FEC0031203D20574946495F4641494C202867BE
:103FFC00656E6572616C206661696C75726529000D
:10400C00202032203D20574946495F4552524F529D
:10401C005F52454345495645445F4552524F5220E5
:10402C00286D6F64756C652072657475726E65644D
:10403C00204552524F522900202033203D20574911
:10404C0046495F4552524F525F4E4F545F52454363
:10405C00454956494E4720286E6F20726573706F24
:10406C006E73652066726F6D206D6F64756C65295B
:10407C0000202034203D20574946495F4552524F7D
:10408C00525F524543454956494E475F474152425C
:10409C004147452028696E76616C696420726573AE
:1040AC00706F6E7365290054726F75626C657368FE
:1040BC006F6F74696E673A002D2056657269667968
:1040CC00205353494420616E642070617373776F81
:1040DC00726420617265207370656C6C656420631A
:1040EC006F72726563746C79002D20456E737572F6
:1040FC00652061636365737320706F696E742069EA
:10410C00732062726F616463617374696E6720748B
:10411C0068652053534944002D20436865636B2028
:10412C0045535038323636206D6F64756C65206996
:10413C007320706F776572656420616E6420636FA5
:10414C006E6E6563746564002D2054727920706FF7
:10415C00776572206379636C696E6720746865207B
:10416C005769466920686F7473706F740053756378
:10417C006365737366756C6C79206A6F696E6564C0
:10418C002057694669206E6574776F726B202725FE
:10419C0073272E0A00456E746572204950206164A5
:1041AC006472657373206F6620544350207365727C
:1041BC0076657220746F20636F6E6E656374207405
:1041CC006F3A20004372656174696E6720544350E6
:1041DC0020636F6E6E656374696F6E20746F20253B
:1041EC00733A32332E2E2E0A004661696C656420B8
:1041FC00746F206372656174652054435020636F43
:10420C006E6E656374696F6E2E204572726F7220CC
:10421C00636F64653A2025640A00537563636573A4
:10422C007366756C6C792063726561746564205477
:10423C00435020636F6E6E656374696F6E2E00540D
:10424C0043502072656365697665643A2025730A6C
:10425C0000596F752077726F74653A2025730A00C8
:10426C00737464696F206472697665722E20547958
:10427C0070652061207465787420746F20656368A4
:10428C006F20746F20746865207465726D696E613F
:10429C006C2E0054696D65722064726976657220AB
:1042AC0064656D6F2E2054797065202771272074FA
:1042BC006F20657869742E004C4544203220776954
:1042CC006C6C20746F67676C6520657665727920FD
:1042DC003130306D732E205072657373696E6720A8
:1042EC00627574746F6E20322077696C6C2070610B
:1042FC007573652F726573756D65207468652062C2
:10430C006C696E6B696E672E0054696D6572206303
:10431C007265617465206661696C65640042757ACA
:10432C007A6572206472697665722064656D6F2E91
:10433C0020507265737320627574746F6E20322016
:10434C00746F2068656172206120626565702E2033
:10435C00547970652027712720746F2065786974F3
:10436C002E004448543131206472697665722064A1
:10437C00656D6F2E20547970652027712720746F1E
:10438C0020657869742E0054656D70657261747562
:10439C00726520616E642068756D6964697479203A
:1043AC0077696C6C206265207072696E746564202C
:1043BC0065766572792032207365636F6E64732E37
:1043CC000054656D70657261747572653A20256470
:1043DC002E2564C2B0432C2048756D6964697479CC
:1043EC003A2025642E256425250A004661696C65F2
:1043FC006420746F2072656164204448543131200C
:10440C0073656E736F7220646174610050726F78A3
:10441C00696D6974792073656E736F72206472694B
:10442C007665722064656D6F2E2054797065202737
:10443C00712720746F20657869742E004469737439
:10444C00616E636520696E206D6D2077696C6C20E0
:10445C006265207072696E74656420657665727928
:10446C002032207365636F6E64732E0050726F7808
:10447C00696D6974792073656E736F722074696DE0
:10448C00656F75742E204E6F206F626A65637420A1
:10449C0064657465637465642077697468696E20FB
:1044AC0072616E67652E0044697374616E63653A60
:1044BC00202564206D6D0A00536572766F206D6F38
:1044CC00746F72206472697665722064656D6F2EEC
:1044DC0020547970652027712720746F20657869C6
:1044EC00742E00456E74657220616E676C652028B1
:1044FC002D393020746F203930293A2000496E76DE
:10450C00616C696420616E676C652E20506C65610E
:10451C00736520656E74657220612076616C7565BB
:10452C00206265747765656E202D393020616E646C
:10453C002039302E00536572766F207365742074A9
:10454C006F20256420646567726565732E0A004CC4
:10455C00696768742073656E736F72206472697614
:10456C0065722064656D6F2E2054797065202771FB
:10457C002720746F20657869742E004C6967687405
:10458C00206C6576656C2077696C6C206265207098
:10459C0072696E7465642065766572792032207359
:1045AC0065636F6E64732E004661696C656420747C
:1045BC006F20726561642066726F6D206C6967682C
:1045CC00742073656E736F722E204D616B65207352
:1045DC0075726520697420697320696E69746961EC
:1045EC006C697A656420636F72726563746C792E82
:1045FC00004C69676874206C6576656C3A2025649C
:10460C002028302D31303233290A00536F696C2049
:10461C006D6F6973747572652073656E736F72203C
:10462C006472697665722064656D6F2E20547970A2
:10463C00652027712720746F20657869742E0053CC
:10464C006F696C206D6F697374757265206C65761B
:10465C00656C2077696C6C206265206D6561737583
:10466C00726564206F6E20504B30206576657279D0
:10467C002032207365636F6E64732E004661696C23
:10468C00656420746F20726561642066726F6D20A2
:10469C00736F696C206D6F697374757265207365C7
:1046AC006E736F722E204D616B6520737572652071
:1046BC00697420697320636F6E6E65637465642022
:1046CC00616E6420696E697469616C697A656420D5
:1046DC00636F72726563746C792E00536F696C2012
:1046EC006D6F697374757265206C6576656C3A20B4
:1046FC0025642028302D31303233290A00506C616A
:10470C0079696E67205374617220576172732074DB
:10471C0068656D65206F6E207468652073706561C7
:10472C006B65722E205072657373205265736574BD
:10473C0020746F20657869742E0056494120554EBF
:10474C00495645525349545920434F4C4C454745C3
:10475C00205345503420496F54204861726477616E
:10476C00726520445249564552532044454D4F00E2
:10477C0054657374696E672057694669206D6F6460
:10478C00756C6520636F6D6D756E69636174696FAF
:10479C006E2E2E2E005761726E696E673A20576925
:1047AC004669206D6F64756C65206E6F7420726540
:1047BC0073706F6E64696E6720746F204154206350
:1047CC006F6D6D616E642E0044697361626C696E0D
:1047DC00672057694669206563686F2E2E2E004549
:1047EC0063686F2064697361626C65642E00576145
:1047FC00726E696E673A204661696C656420746FED
:10480C002064697361626C65206563686F2E005368
:10481C00657474696E67205769466920746F2073DC
:10482C00746174696F6E206D6F64652E2E2E005747
:10483C00694669206D6F64652073657420746F2000
:10484C0073746174696F6E2E004661696C656420C7
:10485C00746F207365742057694669206D6F6465A9
:10486C002E0053657474696E67205769466920740D
:10487C006F2073696E676C6520636F6E6E65637411
:10488C00696F6E206D6F64652E2E2E005769466918
:10489C002073657420746F2073696E676C65206378
:1048AC006F6E6E656374696F6E206D6F64652E003C
:1048BC005761726E696E673A204661696C65642057
:1048CC00746F207365742073696E676C6520636FF9
:1048DC006E6E656374696F6E206D6F64652E004338
:1048EC006F6E6E656374696E6720746F20576946CE
:1048FC006920686F7473706F74202733427265641B
:10490C0062616E642D43423435272E2E2E00742B9B
:10491C0068506771475E6D61003342726564626115
:10492C006E642D4342343500436F6E6E656374655F
:10493C006420746F205769466920686F7473706FB8
:10494C00742027334272656462616E642D43423475
:10495C0035272E004661696C656420746F20636F87
:10496C006E6E65637420746F205769466920686F9A
:10497C007473706F742027334272656462616E6465
:10498C002D43423435272E204572726F7220636F8F
:10499C0064653A2025640A0057694669206D6F6486
:1049AC00756C6520726573706F6E64656420746FCE
:1049BC0020415420636F6D6D616E642E0057694603
:1049CC0069206D6F64756C6520646964206E6F740A
:1049DC0020726573706F6E6420746F204154206375
:1049EC006F6D6D616E642E004D5154542072656371
:1049FC006F6E6E65637420617474656D70742E2EA9
:104A0C002E007B2273657475705F6964223A25757C
:104A1C002C2273656E736F725F6964223A6E756CCB
:104A2C006C2C2274656D7065726174757265223AB6
:104A3C0025752E25752C2268756D6964697479222B
:104A4C003A25752E25752C226C69676874223A25D7
:104A5C00752E25752C22736F696C5F6D6F6973747D
:104A6C00757265223A25752E25757D006661726D0D
:104A7C002F73656E736F722F74656C656D657472D0
:104A8C0079004D515454207075626C69736865647B
:104A9C0020746F2025733A2025730A004D5154540D
:104AAC00207075626C697368206661696C65642C32
:104ABC0020554152542066616C6C6261636B3A20E4
:104ACC0025730A004D515454206E6F7420636F6E21
:104ADC006E65637465642C20554152542066616C7C
:0C4AEC006C6261636B3A2025730A0000C5
:00000001FF
